:020000040800F2
:10000000680A0020CD01000813040008F703000867
:100010000F040008D3020008790D0008000000005A
:10002000000000000000000000000000D50B0008E8
:10003000D702000800000000090A0008150D00089A
:10004000E7010008E7010008E7010008E7010008F0
:10005000E7010008E7010008E7010008E7010008E0
:10006000E7010008E7010008E7010008E7010008D0
:10007000E7010008E7010008E7010008E7010008C0
:10008000E7010008E7010008E7010008E7010008B0
:10009000E7010008E7010008E7010008E7010008A0
:1000A000E7010008E7010008E7010008E701000890
:1000B000E7010008E7010008E7010008E701000880
:1000C000E7010008E7010008E7010008E701000870
:1000D000E7010008E7010008E7010008E701000860
:1000E000E7010008E7010008E7010008E701000850
:1000F000E7010008E7010008E7010008E701000840
:10010000E7010008E7010008E7010008E70100082F
:10011000E7010008E7010008E7010008E70100081F
:10012000E7010008E7010008E7010008E70100080F
:1001300000F002F800F03AF80AA090E8000C8244BF
:100140008344AAF10107DA4501D100F02FF8AFF29C
:10015000090EBAE80F0013F0010F18BFFB1A43F0A5
:10016000010318477C1B00009C1B0000103A24BFB1
:1001700078C878C1FAD8520724BF30C830C144BF0C
:1001800004680C607047000000230024002500264E
:10019000103A28BF78C1FBD8520728BF30C148BFEA
:1001A0000B6070471FB51FBD10B510BD00F058F8AB
:1001B0001146FFF7F7FF00F037FE00F076F803B4C2
:1001C000FFF7F2FF03BC00F07DF80000094880470C
:1001D00009480047FEE7FEE7FEE7FEE7FEE7FEE729
:1001E000FEE7FEE7FEE7FEE704480549054A064B41
:1001F00070470000190D0008310100086804002054
:10020000680A002068060020680600204FF00002FF
:1002100000B5134694469646203922BFA0E80C50FC
:10022000A0E80C50B1F12001BFF4F7AF090728BFD7
:10023000A0E80C5048BF0CC05DF804EB890028BF53
:1002400040F8042B08BF704748BF20F8022B11F07C
:10025000804F18BF00F8012B7047704770477047F8
:10026000754600F02BF8AE4605006946534620F06F
:100270000700854618B020B5FFF7B6FFBDE820405F
:100280004FF000064FF000074FF000084FF0000B52
:1002900021F00701AC46ACE8C009ACE8C009ACE805
:1002A000C009ACE8C0098D46704710B50446AFF3ED
:1002B00000802046BDE81040FFF781BF004870472E
:1002C0000404002001491820ABBEFEE7260002000E
:1002D000704700BFFEE770472DE9F0410246002558
:1002E0000026002000230024002791F803C00CF012
:1002F0000F0591F803C00CF0100CBCF1000F03D0F7
:1003000091F802C04CEA050591F800C0BCF1000F5D
:1003100031D0146800202BE04FF0010C0CFA00F3F0
:10032000B1F800C00CEA03069E4220D183004FF0D2
:100330000F0C0CFA03F7BC4305FA03FC4CEA040467
:1003400091F803C0BCF1280F06D14FF0010C0CFA54
:1003500000FCC2F814C00AE091F803C0BCF1480FD9
:1003600005D14FF0010C0CFA00FCC2F810C0401C83
:100370000828D1D31460B1F800C0BCF1FF0F34DD00
:10038000546800202EE000F1080C4FF0010808FA34
:100390000CF3B1F800C00CEA03069E4221D18300A1
:1003A0004FF00F0C0CFA03F7BC4305FA03FC4CEAC0
:1003B000040491F803C0BCF1280F05D100F1080C2A
:1003C00008FA0CF8C2F8148091F803C0BCF1480F89
:1003D00007D100F1080C4FF0010808FA0CF8C2F838
:1003E0001080401C0828CED35460BDE8F0814161E4
:1003F00070470161704700BFFEE710B500F008F9D3
:1004000000F008F84FF4FA7000F0F0FC10BD00BFE7
:10041000FEE7704770B500240EE00021204600F092
:10042000BFF9002504E0FF2000F0C4FC681CC5B241
:10043000802DF8DB601CC4B2082CEEDB70BD000020
:100440002DE9F04F04461546984600278C464FEAA2
:10045000E17B01EB5B7B4FEAEB0B04EBCB1204EB94
:10046000050CBCF17F0F02DDC4F17F0C00E0AC464F
:10047000664601EB080CBCF13F0F02DDC1F13F0CF9
:1004800000E0C446E2468C464FEAE17B01EB5B7B31
:100490004FEAEB0BA1EBCB03C3F10809002E01DC03
:1004A000BDE8F08F39E0002016E002EB000CDFF829
:1004B00074B01BF80CC000EB070EDDF824B01BF87D
:1004C0000EB00BFA03FB4CEA0B0C02EB000BDFF84F
:1004D00054E00EF80BC0401CB042E6DB8032002036
:1004E00016E002EB000CDFF83CB01BF80CC000EB90
:1004F000070EDDF824B01BF80EB04BFA09FB4CEAEE
:100500000B0C02EB000BDFF81CE00EF80BC0401CDC
:10051000B042E6DB2F44AAF1080ABAF1000FC2DCB0
:1005200000BFBDE70400002070B5002411E00021E9
:10053000204600F035F9002507E005EBC411064A16
:10054000505C00F037FC681CC5B2802DF5DB601CE8
:10055000C4B2082CEBDB70BD0400002000B50346DC
:100560001946012000F002F800BD000002460AB161
:100570000248016001480068704700000000002048
:1005800008B50121082000F051FA0121042000F0F3
:100590004DFA0121042000F049FA10208DF80300E3
:1005A0000002ADF8000003208DF8020069461648ED
:1005B000FFF792FE10208DF803000001ADF8000057
:1005C00003208DF8020069461048FFF785FE1020D1
:1005D0008DF803004001ADF8000003208DF8020003
:1005E00069460A48FFF778FE4FF480510648FFF746
:1005F00000FF4FF480710548FFF7FBFE4FF40071D8
:100600000248FFF7F6FE08BD000C0140000801405B
:1006100010B5182000F01AFAFFF7B2FF4FF400717E
:100620000748FFF7E6FE4FF480710548FFF7E1FE4B
:100630004FF4FA7000F0DAFB00F004F810BD00008F
:100640000008014010B5AE2000F098FB202000F01B
:1006500095FB022000F092FBB02000F08FFB002001
:1006600000F08CFB102000F089FB402000F086FB9E
:10067000812000F083FBFF2000F080FBA12000F030
:100680007DFBC82000F07AFBA62000F077FBA820B5
:1006900000F074FB3F2000F071FBA42000F06EFB23
:1006A000D32000F06BFB002000F068FBD52000F0A9
:1006B00065FBF02000F062FBD92000F05FFB2220F8
:1006C00000F05CFBDA2000F059FB122000F056FB32
:1006D000DB2000F053FB202000F050FB8D2000F0C9
:1006E0004DFB142000F04AFBAF2000F047FB10BD8B
:1006F0002DE9F84106460F4615460024002108461C
:10070000FFF734FF10B300BF1CE0285D0A2802D0B9
:10071000285D0D2802D10026103712E0782E01DB6B
:1007200000261037285DA0F120081B4800EB0810B8
:1007300010230822394600903046FFF781FE083624
:1007400000BF641C285D0028DFD123E000241EE0E8
:10075000285D0A2802D0285D0D2802D1002608371E
:1007600014E07A2E01DB00260837285DA0F120086E
:1007700008EB4800094901EB4000082306223946EE
:1007800000903046FFF75CFEB61D00BF641C285D7C
:100790000028DDD1BDE8F881EE160008C614000877
:1007A00070B505460C4605F1B001C8B200F0E6FA96
:1007B00004F00F0000F0E2FA102141EA141000F0FA
:1007C000DDFA70BD0FB42DE9F04FA5B0802105A86A
:1007D000FFF71CFD0026002431A80390FEE03098AE
:1007E000805D25287ED1761C3098805D632806D0F8
:1007F000642827D0662856D07328F3D10AE00398DE
:1008000010F8041BCAB203902046641C05A90A54C0
:10081000761CE3E0039850F804BB0390002004909A
:1008200009E00498411CC9B204911BF8002020463D
:10083000641C05A90A5404981BF800000028F0D194
:10084000761CCBE0039880C8039037B9302220464D
:10085000641C05A90A54761CC0E0002F05DA2D227D
:100860002046641C05A90A547F42644D17E097FB9B
:10087000F5F038B197FBF5F03030C2B22046641C79
:1008800005A90A5427B930222046641C05A90A5438
:1008900097FBF5F005FB10770A2095FBF0F5002D8E
:1008A000E5D1761C9AE00398C01D20F00700039064
:1008B000D0E90021DDF80CC00CF1080C1046CDF891
:1008C0000CC000F0F1FA82460021504600F00EFC08
:1008D00006D22D222046641C05A90A548AF0004A3B
:1008E000504600E071E000F0CDFB8046404600F04D
:1008F000E5FB5146009000F0F9FC4149019000F001
:1009000029FC029000F0BEFB8146B8F1000F05D132
:1009100030222046641C05A90A541DE0394D19E017
:1009200098FBF5F038B198FBF5F03030C2B22046B4
:10093000641C05A90A54B8F1000F04D130222046E6
:10094000641C05A90A5498FBF5F005FB10880A20E1
:1009500095FBF0F5002DE3D12E222046641C05A95D
:100960000A54B9F1000F04D130222046641C0A5405
:100970001DE0244D19E099FBF5F038B199FBF5F035
:100980003030C2B22046641C05A90A54B9F1000FE8
:1009900004D130222046641C05A90A5499FBF5F0C5
:1009A00005FB10990A2095FBF0F5002DE3D10021FD
:1009B000504600F09BFB06D22D222046641C05A960
:1009C0000A548AF0004A761C08E03046761C3099BA
:1009D0000A5C2046641C05A90A5400BF3098805D5B
:1009E00010B1802CFFF6FBAE05AADDE92E01FFF762
:1009F0007FFE25B0BDE8F00F5DF814FB00CA9A3BFE
:100A00000050C34740420F007047000029B1064A1A
:100A1000D2690243044BDA6104E0034AD26982439B
:100A2000014BDA61704700000010024029B1064A0C
:100A300092690243044B9A6104E0034A926982433B
:100A4000014B9A61704700000010024010B586B05B
:100A5000044601210820FFF7E9FF01218803FFF781
:100A6000D5FF4FF46040ADF8140018208DF8170042
:100A700003208DF8160005A91948FFF72DFC4FF447
:100A800060411748FFF7B5FC0020ADF800004FF4B7
:100A90008270ADF802000020ADF80400ADF8060049
:100AA000ADF808004FF40070ADF80A001820ADF85A
:100AB0000C000020ADF80E000720ADF810006946CC
:100AC000084800F069F80121064800F04BF8FF20C3
:100AD00000F00AF8204600F031F806B010BD000022
:100AE000000C01400038004070B50546002405E0C8
:100AF000601CC4B2C82C01DD002070BD02210E486C
:100B000000F03CF80028F3D029460B4800F042F8EA
:100B1000002405E0601CC4B2C82C01DD0020ECE715
:100B20000121054800F02AF80028F3D0024800F01F
:100B30002EF8C0B2E1E700000038004010B50446CE
:100B4000074800884FF6C7710840054908800846E5
:100B50000088204308800121014800F003F810BDFF
:100B60000038004021B1028842F04002028004E0D7
:100B700002884FF6BF731A40028070470246002079
:100B800013890B400BB1012000E0002070470146A3
:100B9000888970478181704710B50022028802F46D
:100BA00041520B884C8823438C882343CC882343B1
:100BB0000C8923434C8923438C892343CC892343C9
:100BC0001A430280838B4FF2FF74234083830B8A86
:100BD000038210BD704710B500F002F810BD000090
:100BE0000CB50020019000903348006840F480303C
:100BF0003149086000BF3048006800F400300090C0
:100C00000198401C0190009818B90198B0F5A06FA8
:100C1000F1D12948006800F4003010B101200090A3
:100C200001E0002000900098012843D1234800688B
:100C300040F01000214908600846006820F00300D9
:100C400008600846006840F0020008601A484068E2
:100C5000194948600846406848600846406840F4C2
:100C6000806048600846406820F47C104860084670
:100C7000406840F4E81048600846006840F0807022
:100C8000086000BF0C48006800F000700028F9D030
:100C90000948406820F0030007494860084640685A
:100CA00040F00200486000BF0348406800F00C00BC
:100CB0000828F9D10CBD00000010024000200240BD
:100CC00030B50146B1F1807F01D3012030BD21F064
:100CD0007F40401E4FF0E022506150170F22002845
:100CE00007DA13071D0E094B00F00F04241F1D55D2
:100CF00003E013071C0E064B1C5400BF00204FF0EE
:100D0000E0229061072010610020DFE718ED00E08D
:100D100000E400E07047000010B51348006840F0A0
:100D200001001149086008464068104908400E4912
:100D30004860084600680E4908400B4908600846AC
:100D4000006820F4802008600846406820F4FE0017
:100D500048604FF41F008860FFF73DFF4FF00060D0
:100D60000449086010BD0000001002400000FFF8B8
:100D7000FFFFF6FE08ED00E000BFFEE710B50446F9
:100D80004FF400710A48FFF732FB4FF480710848B6
:100D9000FFF72DFB2046FFF7A7FE4FF40071044834
:100DA000FFF727FB4FF480710148FFF722FB10BDCE
:100DB0000008014010B504464FF400710A48FFF7DF
:100DC00016FB4FF480710848FFF713FB2046FFF72E
:100DD0008BFE4FF400710448FFF70BFB4FF480715A
:100DE0000148FFF706FB10BD0008014070B504463E
:100DF0000C48FFF765FF002508E000BF4FF0E0203A
:100E0000006900F480300028F8D06D1CA542F4D3AE
:100E10004FF0E020006920F001004FF0E021086170
:100E200070BD0000401901001FB5FFF7E6FA1EE093
:100E30000120FFF793FB0EA204210620FFF758FCC8
:100E40000020FFF78BFB0F480FA16C226B23CDE92D
:100E50000032CDE902106A230DA214210320FFF70E
:100E6000B1FCFFF761FB4FF4FA70FFF7BFFFDFE75C
:100E700068656C6C6F2068656C6C6F2068656C6C65
:100E80006F000000D2029649746573740000000080
:100E9000633A2563256325630A733A25730D0A6453
:100EA0003A25640A0000000021F00042A2F16052DD
:100EB000B2F5801F01F0004328BFD2F17F6C0BD93F
:100EC0005FEA001C43EAC20242EB507018BF704751
:100ED00028BF20F001007047B2F5801FBCBF184644
:100EE00070474FEA410C1CF5001F02D2084600F083
:100EF000F8B970B500F009F800000089FFF7F6BFF7
:100F00004FF00040A0F5800070470EF1020E2EF069
:100F1000030E5EF8046B364205D4012A43EB030549
:100F200015F5001F12D8012841EB010C1CF5001F1C
:100F30000CD80ED14FEAD17C15F5001F0CEB4C0CF0
:100F40000CF1020C08BF4CEBD37C04E04FF0080C12
:100F500001E04FEAD37C0CEB4C0526FA05F606F0CF
:100F60000706B6F1040C06D20EEB860CBDE8704005
:100F70004CF0010C6047DFE80CF0090B02024FF067
:100F800000414FF00000A1F5002170BD1946104648
:100F9000012851EB010418BFD4F5001484BF0020D0
:100FA00001F0004170BD000090EA010F48BF81F0E0
:100FB000004100F1AC81421A3CBF801A89184FEA07
:100FC000D0524FF07F4C1CEA410FA2EBD15318BF17
:100FD0009CEA026F00F03B804FF0004C4CEA00208E
:100FE0004CEA012121FA03FC10EB0C0C1ED202F199
:100FF000FF325FEA1C2040EBC25038BF70471CF044
:101000007F0F4FEA400C18BFBCF17F4F38BF7047CD
:10101000C3F12003994008BF20F00100BCF17F4FCD
:1010200038BF7047A0F1C04000F05BB94FEA3C0008
:10103000000A40EBC25028BF1CF0FF0F4FEA400CE3
:10104000E6D018BFBCF17F4F38BF7047EAE79CEA93
:10105000026F05D010EA5C0F08BF00F00040704737
:1010600010B500F0F8F800BF64FBBE3E401058BF5A
:10107000C0F14040491058BFC1F140418142EFF3F7
:101080000080704741000B0ED3F19E0208D950F446
:1010900000034FEA032323FA02F048BF404270479F
:1010A00010B500F0D8F800BF4992248000207047A6
:1010B0006FF0004282EA20007047000010F000410B
:1010C00048BF4042B0FA80F310FA03F2C3F19D0327
:1010D0000BD051EAC35101EB1220530638BF7047C1
:1010E00000F1010008BF20F00100704750EA010C38
:1010F00000F113801CF5000F58BFBCF5000F01D4A0
:101100008842704707D710F5000F58BF11F5000F40
:1011100015D488427047894270471CF5000F04D5EA
:10112000BCF5000FF7D5814270474FF0807C1CEB77
:10113000400F38BF1CEB410F01D28142704710B500
:1011400000F089F8922449004FF000504FF0805190
:10115000FFF78CBF4FF47F0C1CEAD0121EBF1CEAB5
:10116000D11392EA0C0F93EA0C0F00F0478090EA3B
:10117000010F48BF42F480724FF0004C4CEA00204F
:101180004CEA012102EB0302A0FB0113A2F50002CD
:10119000002918BF43F001035B0028BF4FEA330367
:1011A00042EB22425FEA132C4CEBC2502EBFBCEB49
:1011B000436FB2F57C0F70474FEA036CBCF1004FF0
:1011C00008BF20F00100B2F57C0F38BF70470BD587
:1011D00082F0FF0212F5803FC8BF704700F1C040A7
:1011E000D8BF00F00040704700F5000C5FEA4C0CDF
:1011F00048BF7047B0F1C04000F073B890EA010FEB
:101200000CEAD11348BF42F48072624538BF63458F
:1012100004D280EA010000F00040704710B500F0F1
:101220001AF800BF8900013E00F007B800F009B8C5
:101230005FEA410C5FEA1C6C08D080EA010000F014
:1012400050B85FEA400C5FEA1C6CF6D14FF00040EA
:10125000A0F5800070470EF1020E2EF0030E5EF82E
:10126000044B244204D44FEA4102B2F17F4F11D81B
:101270004FEA4003B3F17F4F0CD80ED14FEAD07C38
:10128000B2F17F4F0CEB4C0C0CF1020C08BF4CEB95
:10129000D17C04E04FF0080C01E04FEAD17C0CEB6C
:1012A0004C0324FA03F404F00704B4F1040C06D24E
:1012B0000EEB840CBDE810404CF0010C6047DFE8F9
:1012C0000CF0070802024FF00040A0F5800010BDAE
:1012D0000846420018BFD2F1807288BF00F000407B
:1012E00010BDFF2141EAD050C005704780F000409A
:1012F00090EA010F7FF55FAE81F0004100F007B882
:1013000090EA010F48BF81F000413FF554AE421A08
:1013100004D882F00042A0EB020011444FEAD05200
:101320004FF07F4C1CEA410FA2EBD15318BF9CEA4F
:10133000026F4AD04FF0004C4CEA00204CEA0121E9
:1013400021FA03FCB0EB0C0C0FD412F0FE0F36D0D8
:101350005FEA4C001DD5001240EBC25038BF704709
:101360001CF03F0F18BF70470BE0A2F101025FEACB
:101370001C2040EBC25038BF70471CF07F0F18BFD5
:101380007047C3F12003994014BF401E20F00100B4
:10139000704780084FEA122308BF7047B0FA80FCFC
:1013A000A2EB0C02CCF1280C60FA0CF093EA122F9D
:1013B00004BF00EBC25070474FEAC3707047130A76
:1013C0005FEADC1008BF7047F6E79CEA026F04D0C2
:1013D00010EA5C0F08BF0020704710B5FFF73BFF15
:1013E00040DFF63E81F000407047003E5149453EE7
:1013F0000000427F400000426151494600214145C2
:101400004B31001814127F10002745454539003C28
:101410004A494930000171090503003649494936F6
:1014200000064949291E00E010080810E000000FDE
:10143000102020100F00001010F800000000002005
:10144000203F20200000007008080888700000304D
:1014500028242221300000300888884830000018F5
:10146000202020110E000000C02010F8000000070E
:101470000424243F240000F8088888080800001984
:10148000212020110E0000E0108888180000000FB5
:10149000112020110E0000380808C838080000008C
:1014A000003F000000000070880808887000001CE1
:1014B000222121221C0000E010080810E00000009A
:1014C000312222110F000000000000000000002F58
:1014D000000000000700070000147F147F140024A0
:1014E0002A7F2A12231308646200003649552250CD
:1014F00000000503000000001C2241000000412202
:101500001C000014083E08140008083E08080000EB
:1015100000A06000000808080808000060600000E3
:10152000002010080402003E5149453E0000427F61
:101530004000004261514946002141454B310018AD
:1015400014127F10002745454539003C4A4949306F
:101550000001710905030036494949360006494929
:10156000291E000036360000000056360000000834
:101570001422410000141414141400004122140811
:1015800000020151090600324959513E007C1211F6
:10159000127C007F49494936003E41414122007F8B
:1015A0004141221C007F49494941007F0909090145
:1015B000003E4149497A007F0808087F0000417FCA
:1015C0004100002040413F01007F08142241007F7C
:1015D00040404040007F020C027F007F0408107FE3
:1015E000003E4141413E007F09090906003E41514C
:1015F000215E007F09192946004649494931000109
:10160000017F0101003F4040403F001F2040201F5C
:10161000003F4038403F006314081463000708701F
:10162000080700615149454300007F4141000055D2
:101630002A552A55000041417F000004020102049E
:10164000004040404040000001020400002054548B
:101650005478007F484444380038444444200038DB
:101660004444487F00385454541800087E0901024D
:101670000018A4A4A47C007F080404780000447D22
:101680004000004080847D00007F1028440000005E
:10169000417F4000007C04180478007C0804047832
:1016A00000384444443800FC24242418001824241E
:1016B00018FC007C0804040800485454542000041A
:1016C0003F444020003C4040207C001C2040201C27
:1016D000003C4030403C004428102844001CA0A09E
:1016E000A07C004464544C441414141414140000DA
:1016F00000000000000000000000000000000000EA
:1017000000F800000000000000333000000000106E
:101710000C06100C0600000000000000000040C095
:101720007840C0784000043F04043F040400007087
:1017300088FC08300000001820FF211E0000F0087F
:10174000F000E018000000211C031E211E0000F024
:101750000888700000001E2123241927211010166C
:101760000E0000000000000000000000000000006B
:1017700000E01804020000000007182040000002EA
:101780000418E0000000004020180700000040405E
:1017900080F0804040000202010F010202000000C0
:1017A00000F0000000000101011F01010100000024
:1017B00000000000000080B0700000000000000089
:1017C0000000000000000001010101010101000012
:1017D00000000000000000303000000000000000A9
:1017E000000080601804006018060100000000E09E
:1017F00010080810E000000F102020100F0000104B
:1018000010F8000000000020203F202000000070A1
:101810000808088870000030282422213000003099
:101820000888884830000018202020110E00000091
:10183000C02010F8000000070424243F240000F812
:101840000888880808000019212020110E0000E0F7
:10185000108888180000000F112020110E00003899
:101860000808C83808000000003F000000000070B1
:10187000880808887000001C222121221C0000E03A
:1018800010080810E0000000312222110F000000B3
:1018900000C0C00000000000003030000000000068
:1018A00000800000000000008060000000000000D8
:1018B0008040201008000001020408102000404071
:1018C00040404040400004040404040404000008B4
:1018D0001020408000000020100804020100007069
:1018E00048080808F0000000003036010000C03051
:1018F000C828E810E0000718272423140B00000074
:10190000C038E0000000203C23020227382008F8FD
:10191000888888700000203F202020110E00C030F1
:10192000080808083800071820202010080008F8C8
:1019300008080810E000203F202020100F0008F8C1
:101940008888E8081000203F20202320180008F88D
:101950008888E8081000203F200003000000C03005
:1019600008080838000007182020221E020008F886
:1019700008000008F808203F210101213F2000084D
:1019800008F8080800000020203F20200000000088
:101990000808F8080800C08080807F00000008F870
:1019A00088C028180800203F20012638200008F8A9
:1019B000080000000000203F20202020300008F810
:1019C000F800F8F80800203F003F003F200008F82A
:1019D00030C00008F808203F200007183F00E01042
:1019E00008080810E0000F10202020100F0008F851
:1019F00008080808F000203F210101010000E01064
:101A000008080810E0000F18242438504F0008F888
:101A1000888888887000203F2000030C30200070E8
:101A20008808080838000038202121221C001808E6
:101A300008F8080818000000203F2000000008F8FF
:101A400008000008F808001F202020201F00087848
:101A5000880000C83808000007380E010000F808A8
:101A600000F80008F800033C0700073C03000818D2
:101A700068808068180820302C03032C3020083838
:101A8000C800C83808000000203F200000001008EF
:101A90000808C83808002038262120201800000037
:101AA00000FE020202000000007F40404000000CE7
:101AB00030C000000000000000010638C000000235
:101AC0000202FE000000004040407F0000000000D5
:101AD00004020202040000000000000000000000F8
:101AE00000000000000080808080808080800002F4
:101AF00002040000000000000000000000000000E0
:101B00008080808000000019242222223F2008F8D3
:101B1000008080000000003F112020110E00000016
:101B2000008080800000000E1120202011000000A5
:101B300000808088F800000E112020103F20000057
:101B4000808080800000001F22222222130000805B
:101B500080F0888888180020203F202000000000A6
:101B6000808080808000006B94949493600008F8DB
:101B7000008080800000203F210000203F20008066
:101B80009898000000000020203F20200000000066
:101B900000809898000000C08080807F000008F8D6
:101BA000000080808000203F24022D3020000008AB
:101BB00008F8000000000020203F20200000808066
:101BC000808080808000203F20003F20003F808078
:101BD000008080800000203F210000203F20000086
:101BE000808080800000001F202020201F00808037
:101BF00000808000000080FFA12020110E00000066
:101C0000008080808000000E112020A0FF80808056
:101C100080008080800020203F2120000100000003
:101C200080808080800000332424242419000080D8
:101C300080E0808000000000001F202000008080E5
:101C4000000000808000001F202020103F208080A6
:101C500080000080808000010E3008060100808036
:101C60000080008080800F300C030C300F0000805B
:101C70008000808080000020312E0E312000808086
:101C800080000080808080818E70180601000080B6
:101C90008080808080000021302C222130000000D4
:101CA0000000807C020200000000003F4040000075
:101CB0000000FF00000000000000FF000000000224
:101CC000027C800000000040403F00000000000651
:101CD00001010202040400000000000000000000F6
:101CE000001D000800000020040000006C01000836
:101CF000041D000804000020640A00008801000898
:041D000000000000DF
:0400000508000131BD
:00000001FF
