:020000040800F2
:10000000A00B00200D02000807040008EB03000805
:1000100003040008C7020008E10A0008000000000D
:100020000000000000000000000000003D09000882
:10003000CB02000800000000710700087D0A0008DC
:1000400027020008270200082702000827020008EC
:1000500027020008270200082702000827020008DC
:1000600027020008270200082702000827020008CC
:1000700027020008270200082702000827020008BC
:1000800027020008270200082702000827020008AC
:10009000270200082702000827020008270200089C
:1000A000270200082702000827020008270200088C
:1000B000270200082702000827020008270200087C
:1000C000270200082702000827020008270200086C
:1000D000270200082702000827020008270200085C
:1000E000270200082702000827020008270200084C
:1000F000270200082702000827020008270200083C
:10010000270200082702000827020008270200082B
:10011000270200082702000827020008270200081B
:10012000270200082702000827020008270200080B
:1001300000F002F800F05AF80AA090E8000C82449F
:100140008344AAF10107DA4501D100F04FF8AFF27C
:10015000090EBAE80F0013F0010F18BFFB1A43F0A5
:10016000010318478C130000AC1300000A444FF041
:10017000000C10F8013B13F0070408BF10F8014B06
:100180001D1108BF10F8015B641E05D010F8016B4B
:10019000641E01F8016BF9D113F0080F1EBF10F8AF
:1001A000014BAD1C0C1B09D16D1E58BF01F801CBD2
:1001B000FAD505E014F8016B01F8016B6D1EF9D555
:1001C0009142D6D37047000000230024002500266A
:1001D000103A28BF78C1FBD8520728BF30C148BFAA
:1001E0000B6070471FB51FBD10B510BD00F031F892
:1001F0001146FFF7F7FF00F0CBFC00F04FF803B417
:10020000FFF7F2FF03BC00F057F8000009488047F1
:1002100009480047FEE7FEE7FEE7FEE7FEE7FEE7E8
:10022000FEE7FEE7FEE7FEE704480549054A064B00
:1002300070470000810A000831010008A005002075
:10024000A00B0020A0070020A007002070477047E7
:100250007047754600F02CF8AE46050069465346D7
:1002600020F00700854618B020B5FFF7DDFFBDE898
:1002700020404FF000064FF000074FF000084FF00D
:10028000000B21F00701AC46ACE8C009ACE8C0099E
:10029000ACE8C009ACE8C0098D46704710B504460B
:1002A000AFF300802046BDE81040FFF7A8BF000074
:1002B000004870474005002001491820ABBEFEE70A
:1002C00026000200704700BFFEE770472DE9F041AD
:1002D000024600250026002000230024002791F874
:1002E00003C00CF00F0591F803C00CF0100CBCF12A
:1002F000000F03D091F802C04CEA050591F800C048
:10030000BCF1000F31D0146800202BE04FF0010C3D
:100310000CFA00F3B1F800C00CEA03069E4220D1AB
:1003200083004FF00F0C0CFA03F7BC4305FA03FCF3
:100330004CEA040491F803C0BCF1280F06D14FF039
:10034000010C0CFA00FCC2F814C00AE091F803C0DA
:10035000BCF1480F05D14FF0010C0CFA00FCC2F8BB
:1003600010C0401C0828D1D31460B1F800C0BCF103
:10037000FF0F34DD546800202EE000F1080C4FF030
:10038000010808FA0CF3B1F800C00CEA03069E421B
:1003900021D183004FF00F0C0CFA03F7BC4305FA90
:1003A00003FC4CEA040491F803C0BCF1280F05D10A
:1003B00000F1080C08FA0CF8C2F8148091F803C098
:1003C000BCF1480F07D100F1080C4FF0010808FA02
:1003D0000CF8C2F81080401C0828CED35460BDE849
:1003E000F081416170470161704700BFFEE710B5C1
:1003F00000F0F6F800F008F84FF4FA7000F0AAFBED
:1004000010BD00BFFEE7704770B500240EE000216C
:10041000204600F09BF9002504E0FF2000F07EFB61
:10042000681CC5B2802DF8DB601CC4B2082CEEDB62
:1004300070BD00002DE9F04F044615469846002790
:100440008C464FEAE17B01EB5B7B4FEAEB0B04EB65
:10045000CB1204EB050CBCF17F0F02DDC4F17F0C65
:1004600000E0AC46664601EB080CBCF13F0F02DD34
:10047000C1F13F0C00E0C446E2468C464FEAE17B06
:1004800001EB5B7B4FEAEB0BA1EBCB03C3F108095C
:10049000002E01DCBDE8F08F39E0002016E002EB11
:1004A000000CDFF874B01BF80CC000EB070EDDF891
:1004B00024B01BF80EB00BFA03FB4CEA0B0C02EB5A
:1004C000000BDFF854E00EF80BC0401CB042E6DB36
:1004D0008032002016E002EB000CDFF83CB01BF885
:1004E0000CC000EB070EDDF824B01BF80EB04BFA81
:1004F00009FB4CEA0B0C02EB000BDFF81CE00EF8DA
:100500000BC0401CB042E6DB2F44AAF1080ABAF146
:10051000000FC2DC00BFBDE74001002070B5002421
:1005200011E00021204600F011F9002507E005EB5D
:10053000C411064A505C00F0F1FA681CC5B2802D67
:10054000F5DB601CC4B2082CEBDB70BD4001002061
:1005500008B50121082000F01DF90121042000F058
:1005600019F90121042000F015F910208DF803007D
:100570000002ADF8000003208DF80200694616481D
:10058000FFF7A4FE10208DF803000001ADF8000075
:1005900003208DF8020069461048FFF797FE1020EF
:1005A0008DF803004001ADF8000003208DF8020033
:1005B00069460A48FFF78AFE4FF480510648FFF764
:1005C00012FF4FF480710548FFF70DFF4FF40071E3
:1005D0000248FFF708FF08BD000C01400008014079
:1005E00010B5182000F0E6F8FFF7B2FF4FF40071E5
:1005F0000748FFF7F8FE4FF480710548FFF7F3FE58
:100600004FF4FA7000F0A6FA00F004F810BD0000F4
:100610000008014010B5AE2000F064FA202000F080
:1006200061FA022000F05EFAB02000F05BFA0020D0
:1006300000F058FA102000F055FA402000F052FA6D
:10064000812000F04FFAFF2000F04CFAA12000F0CA
:1006500049FAC82000F046FAA62000F043FAA82084
:1006600000F040FA3F2000F03DFAA42000F03AFAF2
:10067000D32000F037FA002000F034FAD52000F043
:1006800031FAF02000F02EFAD92000F02BFA2220C7
:1006900000F028FADA2000F025FA122000F022FA01
:1006A000DB2000F01FFA202000F01CFA8D2000F063
:1006B00019FA142000F016FAAF2000F013FA10BD5A
:1006C0002DE9F84305468846164699460024B9F1B7
:1006D000000F19D000BF13E0305DA0F120071948CA
:1006E00000EB071010230822414600902846FFF730
:1006F000A1FE0835782D02DB002508F11008641CE6
:10070000305D0028E8D11AE0002415E0305DA0F14A
:10071000200707EB47000C4901EB400008230622A5
:10072000414600902846FFF785FEAD1D7A2D02DB7D
:10073000002508F10808641C305D0028E6D1BDE8FA
:10074000F8830000FE0E0008D60C000870B50546C0
:100750000C4605F1B001C8B200F0C4F904F00F0076
:1007600000F0C0F9102141EA141000F0BBF970BD8F
:100770007047000029B1064AD2690243044BDA618E
:1007800004E0034AD2698243014BDA6170470000FA
:100790000010024029B1064A92690243044B9A6153
:1007A00004E0034A92698243014B9A61704700005A
:1007B0000010024010B586B0044601210820FFF762
:1007C000E9FF01218803FFF7D5FF4FF46040ADF842
:1007D000140018208DF8170003208DF8160005A9C5
:1007E0001948FFF773FD4FF460411748FFF7FBFD11
:1007F0000020ADF800004FF48270ADF80200002038
:10080000ADF80400ADF80600ADF808004FF4007034
:10081000ADF80A001820ADF80C000020ADF80E006D
:100820000720ADF810006946084800F069F801217A
:10083000064800F04BF8FF2000F00AF8204600F0D0
:1008400031F806B010BD0000000C01400038004037
:1008500070B50546002405E0601CC4B2C82C01DD5B
:10086000002070BD02210E4800F03CF80028F3D0B3
:1008700029460B4800F042F8002405E0601CC4B291
:10088000C82C01DD0020ECE70121054800F02AF822
:100890000028F3D0024800F02EF8C0B2E1E70000D3
:1008A0000038004010B50446074800884FF6C7716D
:1008B0000840054908800846008820430880012137
:1008C000014800F003F810BD0038004021B1028853
:1008D00042F04002028004E002884FF6BF731A40E3
:1008E000028070470246002013890B400BB10120A3
:1008F00000E0002070470146888970478181704779
:1009000010B50022028802F441520B884C88234320
:100910008C882343CC8823430C8923434C8923436D
:100920008C892343CC8923431A430280838B4FF263
:10093000FF74234083830B8A038210BD704710B578
:1009400000F002F810BD00000CB5002001900090EE
:100950003348006840F480303149086000BF3048B7
:10096000006800F4003000900198401C019000984D
:1009700018B90198B0F5A06FF1D12948006800F4CA
:10098000003010B10120009001E00020009000989C
:10099000012843D12348006840F010002149086035
:1009A0000846006820F0030008600846006840F030
:1009B000020008601A4840681949486008464068C3
:1009C00048600846406840F48060486008464068D7
:1009D00020F47C1048600846406840F4E810486005
:1009E0000846006840F08070086000BF0C4800684E
:1009F00000F000700028F9D00948406820F003009A
:100A0000074948600846406840F00200486000BF5F
:100A10000348406800F00C000828F9D10CBD000024
:100A2000001002400020024030B50146B1F1807F45
:100A300001D3012030BD21F07F40401E4FF0E02265
:100A4000506150170F22002807DA13071D0E094BBB
:100A500000F00F04241F1D5503E013071C0E064B66
:100A60001C5400BF00204FF0E0229061072010616D
:100A70000020DFE718ED00E000E400E07047000030
:100A800010B51348006840F001001149086008469D
:100A90004068104908400E494860084600680E4901
:100AA00008400B4908600846006820F48020086070
:100AB0000846406820F4FE0048604FF41F0088603C
:100AC000FFF73DFF4FF000600449086010BD0000D3
:100AD000001002400000FFF8FFFFF6FE08ED00E006
:100AE00000BFFEE710B504464FF400710A48FFF757
:100AF00078FC4FF480710848FFF773FC2046FFF73D
:100B0000A7FE4FF400710448FFF76DFC4FF48071AD
:100B10000148FFF768FC10BD0008014010B504460D
:100B20004FF400710A48FFF75CFC4FF480710848ED
:100B3000FFF759FC2046FFF78BFE4FF40071044885
:100B4000FFF751FC4FF480710148FFF74CFC10BDDA
:100B50000008014070B504460C48FFF765FF00250A
:100B600008E000BF4FF0E020006900F4803000286A
:100B7000F8D06D1CA542F4D34FF0E020006920F0BE
:100B800001004FF0E021086170BD00004019010034
:100B900008B5FFF72CFC13E001230AA2042106206C
:100BA000FFF78EFD0E4820235022282100905A2066
:100BB000FFF740FCFFF7B2FC4FF4FA70FFF7CAFFF3
:100BC000EAE7000068656C6C6F68656C6C6F68655F
:100BD0006C6C6F68656C6C6F68656C6C6F000000A6
:100BE00000000020003E5149453E0000427F400089
:100BF000004261514946002141454B310018141211
:100C00007F10002745454539003C4A4949300001DD
:100C10007109050300364949493600064949291E2C
:100C200000006060000000E010080810E000000F05
:100C3000102020100F00001010F80000000000200D
:100C4000203F202000000070080808887000003055
:100C500028242221300000300888884830000018FD
:100C6000202020110E000000C02010F80000000716
:100C70000424243F240000F808888808080000198C
:100C8000212020110E0000E0108888180000000FBD
:100C9000112020110E0000380808C8380800000094
:100CA000003F000000000070880808887000001CE9
:100CB000222121221C0000E010080810E0000000A2
:100CC000312222110F00000000000000000000305F
:100CD0003000000000000000000000000000002FB5
:100CE000000000000700070000147F147F14002498
:100CF0002A7F2A12231308646200003649552250C5
:100D000000000503000000001C22410000004122F9
:100D10001C000014083E08140008083E08080000E3
:100D200000A06000000808080808000060600000DB
:100D3000002010080402003E5149453E0000427F59
:100D40004000004261514946002141454B310018A5
:100D500014127F10002745454539003C4A49493067
:100D60000001710905030036494949360006494921
:100D7000291E00003636000000005636000000082C
:100D80001422410000141414141400004122140809
:100D900000020151090600324959513E007C1211EE
:100DA000127C007F49494936003E41414122007F83
:100DB0004141221C007F49494941007F090909013D
:100DC000003E4149497A007F0808087F0000417FC2
:100DD0004100002040413F01007F08142241007F74
:100DE00040404040007F020C027F007F0408107FDB
:100DF000003E4141413E007F09090906003E415144
:100E0000215E007F09192946004649494931000100
:100E1000017F0101003F4040403F001F2040201F54
:100E2000003F4038403F0063140814630007087017
:100E3000080700615149454300007F4141000055CA
:100E40002A552A55000041417F0000040201020496
:100E50000040404040400000010204000020545483
:100E60005478007F484444380038444444200038D3
:100E70004444487F00385454541800087E09010245
:100E80000018A4A4A47C007F080404780000447D1A
:100E90004000004080847D00007F10284400000056
:100EA000417F4000007C04180478007C080404782A
:100EB00000384444443800FC242424180018242416
:100EC00018FC007C08040408004854545420000412
:100ED0003F444020003C4040207C001C2040201C1F
:100EE000003C4030403C004428102844001CA0A096
:100EF000A07C004464544C441414141414140000D2
:100F000000000000000000000000000000000000E1
:100F100000F8000000000000003330000000001066
:100F20000C06100C0600000000000000000040C08D
:100F30007840C0784000043F04043F04040000707F
:100F400088FC08300000001820FF211E0000F00877
:100F5000F000E018000000211C031E211E0000F01C
:100F60000888700000001E21232419272110101664
:100F70000E00000000000000000000000000000063
:100F800000E01804020000000007182040000002E2
:100F90000418E00000000040201807000000404056
:100FA00080F0804040000202010F010202000000B8
:100FB00000F0000000000101011F0101010000001C
:100FC00000000000000080B0700000000000000081
:100FD000000000000000000101010101010100000A
:100FE00000000000000000303000000000000000A1
:100FF000000080601804006018060100000000E096
:1010000010080810E000000F102020100F00001042
:1010100010F8000000000020203F20200000007099
:101020000808088870000030282422213000003091
:101030000888884830000018202020110E00000089
:10104000C02010F8000000070424243F240000F80A
:101050000888880808000019212020110E0000E0EF
:10106000108888180000000F112020110E00003891
:101070000808C83808000000003F000000000070A9
:10108000880808887000001C222121221C0000E032
:1010900010080810E0000000312222110F000000AB
:1010A00000C0C00000000000003030000000000060
:1010B00000800000000000008060000000000000D0
:1010C0008040201008000001020408102000404069
:1010D00040404040400004040404040404000008AC
:1010E0001020408000000020100804020100007061
:1010F00048080808F0000000003036010000C03049
:10110000C828E810E0000718272423140B0000006B
:10111000C038E0000000203C23020227382008F8F5
:10112000888888700000203F202020110E00C030E9
:10113000080808083800071820202010080008F8C0
:1011400008080810E000203F202020100F0008F8B9
:101150008888E8081000203F20202320180008F885
:101160008888E8081000203F200003000000C030FD
:1011700008080838000007182020221E020008F87E
:1011800008000008F808203F210101213F20000845
:1011900008F8080800000020203F20200000000080
:1011A0000808F8080800C08080807F00000008F868
:1011B00088C028180800203F20012638200008F8A1
:1011C000080000000000203F20202020300008F808
:1011D000F800F8F80800203F003F003F200008F822
:1011E00030C00008F808203F200007183F00E0103A
:1011F00008080810E0000F10202020100F0008F849
:1012000008080808F000203F210101010000E0105B
:1012100008080810E0000F18242438504F0008F880
:10122000888888887000203F2000030C30200070E0
:101230008808080838000038202121221C001808DE
:1012400008F8080818000000203F2000000008F8F7
:1012500008000008F808001F202020201F00087840
:10126000880000C83808000007380E010000F808A0
:1012700000F80008F800033C0700073C03000818CA
:1012800068808068180820302C03032C3020083830
:10129000C800C83808000000203F200000001008E7
:1012A0000808C8380800203826212020180000002F
:1012B00000FE020202000000007F40404000000CDF
:1012C00030C000000000000000010638C00000022D
:1012D0000202FE000000004040407F0000000000CD
:1012E00004020202040000000000000000000000F0
:1012F00000000000000080808080808080800002EC
:1013000002040000000000000000000000000000D7
:101310008080808000000019242222223F2008F8CB
:10132000008080000000003F112020110E0000000E
:10133000008080800000000E11202020110000009D
:1013400000808088F800000E112020103F2000004F
:10135000808080800000001F222222221300008053
:1013600080F0888888180020203F2020000000009E
:10137000808080808000006B94949493600008F8D3
:10138000008080800000203F210000203F2000805E
:101390009898000000000020203F2020000000005E
:1013A00000809898000000C08080807F000008F8CE
:1013B000000080808000203F24022D3020000008A3
:1013C00008F8000000000020203F2020000080805E
:1013D000808080808000203F20003F20003F808070
:1013E000008080800000203F210000203F2000007E
:1013F000808080800000001F202020201F0080802F
:1014000000808000000080FFA12020110E0000005D
:10141000008080808000000E112020A0FF8080804E
:1014200080008080800020203F21200001000000FB
:1014300080808080800000332424242419000080D0
:1014400080E0808000000000001F202000008080DD
:10145000000000808000001F202020103F2080809E
:1014600080000080808000010E300806010080802E
:101470000080008080800F300C030C300F00008053
:101480008000808080000020312E0E31200080807E
:1014900080000080808080818E70180601000080AE
:1014A0008080808080000021302C222130000000CC
:1014B0000000807C020200000000003F404000006D
:1014C0000000FF00000000000000FF00000000021C
:1014D000027C800000000040403F00000000000649
:1014E00001010202040400000000000000000000EE
:1014F0001015000800000020400100006C010008E9
:101500006C15000840010020600A0000C8010008B6
:10151000011C1A800171180A607070F0F0F0F8FC7C
:10152000F8060434F07060200CFCFFFFFFE3C3C733
:1015300007FFFFFE2BC0EE01191239080A32E051F5
:101540001E033F7F7F7001347F3F3F199C1AEC4A96
:101550000008424E0E0E3EFEFEFC18097F7F7F0EF5
:0C1560000E060606FB2B7F7F61011700C2
:0400000508000131BD
:00000001FF
